:020000040800F2
:10000000308F0020CD00000845210008D51E0008D3
:1000100000000000000000000000000000000000E0
:10002000000000000000000000000000492100085E
:100030000000000000000000472100084B210008DC
:10004000DF00000800000000DF000008DF000008FB
:10005000DF000008DF000008DF000008DF00000804
:1000600000000000DF000008DF000008DF000008DB
:10007000DF000008DF000008DF00000800000000CB
:10008000DF000008DF000008DF000008DF000008D4
:10009000FD210008DF000008DF000008DF00000885
:1000A000DF000008DF000008DF000008DF000008B4
:1000B000DF000008DF0000080348854600F062F812
:1000C00000480047CD2A0008308F002004488047B0
:1000D00004480047FEE7FEE7FEE7FEE7FEE7FEE72F
:1000E000ED210008B900000830B50B46014600209C
:1000F0002022012409E00D46D5409D4205D31D462E
:100100009540491B2546954040191546521E002D25
:10011000F1DC30BD70B500242546002801DA012449
:100120004042002901DA01254942FFF7DDFFAC42D8
:1001300000D04042002C00D0494270BD03460B4322
:100140009B0703D009E008C9121F08C0042AFAD28D
:1001500003E00B780370401C491C521EF9D2704713
:10016000D2B201E00270401C491EFBD2704700224F
:10017000F6E710B513460A4604461946FFF7F0FFA6
:10018000204610BD064C0125064E05E0E36807CC6D
:100190002B430C3C98471034B442F7D3FFF790FF41
:1001A000243000084430000870B50446006801F0AF
:1001B00096FE002820D0206881688907C90F04D1E5
:1001C00081680E4A11401031816000F087FC0546BD
:1001D0000EE000F083FC401B022809D9A06D10211D
:1001E0000843A065E06D01210843E065084670BD45
:1001F000206880684007ECD4002070BDE8FFFF7FD6
:10020000F8B50446006881688907CD0F01F063FEE8
:10021000002826D0002D24D12068816805221140B5
:1002200010250126012910D181680F4A1140891C2F
:10023000816021680320086000F050FC07460CE054
:1002400000F04CFCC01B022807D9A06D2843A06514
:10025000E06D3043E0650120F8BD20688068C0078C
:10026000EED10020F8BD0000E8FFFF7FF8B504469E
:1002700000200090206801F02EFE002840D1206868
:100280008168204A1026114000292BD18168D5436E
:100290002940491C81601C480068072189050840E5
:1002A00000020AD51A4819490068FFF71DFF401CD3
:1002B00000E0401E00900028FBD1607E01281FD086
:1002C00000F00CFC074616E001F005FE002804D102
:1002D000206881682940491C816000F0FFFBC01B39
:1002E000022808D9A06D3043A065E06D01210843C4
:1002F000E0650846F8BD20680168C943C907E3D135
:100300000020F8BD1700008008270140400D0300C1
:1003100080000020F8B500270646044640360097C6
:10032000307D0D4601280FD001203075206801F086
:10033000D6FD00280AD0A06D20210843A065012722
:10034000002030753846F8BD0220F8BD68680228E4
:100350007ED001222169D207914202D0121D914222
:1003600006D120682968826A4903490B0A436EE076
:10037000C206D20E0F20216E9040814328684303AD
:1003800002D0C3074BD102E04000C00E48E0830713
:1003900001D5012044E0430701D5022040E00307D6
:1003A00001D503203CE0C30601D5042038E08306D4
:1003B00001D5052034E0430601D5062030E00306D0
:1003C00001D507202CE0C30501D5082028E08305CE
:1003D00001D5092024E0430501D50A2020E00305CA
:1003E00001D50B201CE0C30401D50C2018E08304C8
:1003F00001D50D2014E0430401D50E2010E00304C4
:1004000001D50F200CE0C30301D5102008E08303C1
:1004100001D5112004E0400301D5122000E00020A6
:100420009040014321666968E2698808401C904257
:1004300010D820682B68826A9C46C906C90E0F2313
:100440008B409A4363469B001B0F8B401A4300E08E
:100450003BE082622168AB6828684A6900028243F7
:1004600018404001400902434A612868002800DB27
:1004700066E72B4A116807239B051940294B9842D0
:1004800014D10B0212D4C0020143104601F033FD17
:10049000264825490068FFF727FE0C214843401CE9
:1004A00000E0401E00900028FBD149E7204B984215
:1004B00003D1CB0101D4800205E01E4B9842D7D175
:1004C0004802D5D45802014325E001212069C9071B
:1004D000884202D0091D884206D120682968826AB4
:1004E0004903490B8A43826228680028C0DA0C4A13
:1004F000116807239B0519400A4B984201D1C0029D
:1005000008E00B4B984201D1800203E0094B98426E
:10051000AED140028143104601F0EDFC10E700002F
:1005200008270140001000B0400D030080000020AB
:10053000004000B8002000B40068006C7047000064
:10054000FEB5002704463E4601970097002803D0D9
:10055000A06D002802D008E00120FEBD204600F07A
:1005600015F90020E0655421085520688168C9000C
:10057000C90F11D181687C4A114001221207114331
:1005800081607B4879490068FFF7AEFD400000E0DC
:10059000401E00900028FBD120688168C900C90F67
:1005A00008D1A16D10221143A165E16D0122114313
:1005B000E165174601F093FCA16DC90601D400283E
:1005C00004D0A06D10210843A065CAE0A06DFF21F2
:1005D0000131884302210843A065206801F07BFCBB
:1005E00001462046203000292FD12268D1681823E7
:1005F0009943A3681943D160626C216C636811430D
:100600009B0FA26C9B071A431143E26C11430E43EC
:10061000017F012900D10E4322681169554B194011
:100620003143116103226168920791420DD05A074C
:1006300091420AD05200914207D04F4DAB680F2231
:100640009204934311400B43AB60217E8D03617E86
:10065000C9030D43A17E4A031543226B002A01D032
:10066000012212031543E26815432269002A02DAC7
:100670005200520801E0012252051543027B007826
:1006800052001543019A1543012809D1002955D07C
:10069000A06D20210843A065E06D01210843E065BD
:1006A000606A002806D0FF22C1321040A16A2843A8
:1006B0000D4605432168C868304A10402843C86089
:1006C000216808692E4A1040304308610021626B9E
:1006D000206801F017FC2B49A26B206801F012FC86
:1006E0000F212069C94300282CD0012252059042D5
:1006F00016D1226E002083001646DE40F3431B070E
:1007000002D0401C0828F6D301281BD02068836A39
:10071000237F9B001B1FDB06DB0E99401143816288
:100720002068C06818490840A84210D10020E06540
:10073000A06D80088000401CA06513E0012000042B
:100740000543ADE72068826A0A438262E8E7A06D4C
:100750000221884310210843A065E06D0121084370
:10076000E06501273846FEBDE8FFFF7F400D03002E
:100770008000002002FCFF1F002701401902FEFF3D
:1007800002FCFFDF04FFFF07E7FF3F8310B586B0E1
:10079000044614216846FFF7EAFC114920688842A4
:1007A0001CD110480268012109050A430260006853
:1007B000084005900B484038416B012211434163CA
:1007C000406B694610400590022000900320019084
:1007D000002002900520000700F0CCF806B010BD04
:1007E0000024014040100240F8B5044640690D461F
:1007F000082809D02068C068C00707D0A06D202154
:100800000843A0650120F8BD082600E0042600F09A
:1008100065F9074608E0681C06D000F05FF9C01BC8
:10082000A84214D8002D12D0206800683042F2D0BF
:10083000A06D012149020843A065206801F053FB27
:100840000C2500281CD0A07E002809D018E0A06D3F
:1008500004210843A0650020403420750320F8BD22
:100860002068016809070BD501F039FB0121002838
:100870000AD0A06D20221043A065E06D0843E0651A
:10088000207E00280BD00CE020684268AA4342601A
:10089000A06DFF22013290430843A065F0E7206875
:1008A00005600020F8BD000070B50446006801F046
:1008B00016FB002802D00221084670BD25464035AF
:1008C000287D01280AD0012028752046FFF7CEFC9C
:1008D00001460020002903D02875EDE7022070BDF5
:1008E000A26D094B1A40FF2301331A43A265E0654C
:1008F00023681C221A60287520688268034B1A40FE
:10090000121D8260D8E70000FEF1FFFFE8FFFF7FC5
:1009100070B5054604464035287D012807D00126DC
:100920002E752046FFF740FC002802D00CE0022084
:1009300070BD2046FFF764FC002805D1A16DFF22A1
:10094000013291433143A1650021297570BD00003A
:1009500070B5044600F0C2F80546601C02D0044899
:100960000078241800F0BAF8401BA042FAD370BDFA
:1009700074000020FCB5002301259AE022462C4695
:100980009C4022406FD04E68012E05D0022E03D02D
:10099000112E01D0122E16D186680327B4465E00B0
:1009A000B646B7406646BE43B446CF687646B740C3
:1009B0006646374387604668A6430C79E406E40F31
:1009C0009C4034434460C6685F000324BC40A44696
:1009D000A6438C68BC403443C4604C68022C01D0F0
:1009E000122C14D1DC08A40024180194266A5C0798
:1009F000B646E60E0F24B44000967646A643B646A9
:100A00000C69009EB44076462643019C2662046829
:100A10006646B4430E79B607B60FBE40264306605D
:100A20004C68E40044D59E08254CB6003419A44611
:100A3000246E9E07F60E0F27B740BC4305273F07DD
:100A4000B84201D1002710E01E4FB84201D1012762
:100A50000BE01D4FB84201D1022706E01B4FB84200
:100A600002D1032701E023E00527B740274364466E
:100A70002766134E803634684F689443FF0300D5D1
:100A80001443346074684F689443BF0300D5144323
:100A900074600B4C26684F689643FF0200D51643DE
:100AA000266066684F689643BF0200D516436660AD
:100AB0005B1C0A681446DA4000D05FE7FCBD00000A
:100AC000001802400004005000080050000C0050C4
:100AD000002A01D0816170478162704701488068B7
:100AE000704700007400002070B504000FD021682A
:100AF0001348086021681348086003CC41602068EF
:100B0000083C21688860FFF7E9FF054608E00120FE
:100B100070BDFFF7E3FF401B302801D9032070BDF3
:100B20002068C0680028F4D120680269E1688A4220
:100B300001D0016101E004490160002070BD0000A6
:100B4000CCCC000055550000AAAA0000006802495C
:100B50000160002070470000AAAA000002488168D6
:100B600002788918816070477400002010B5084829
:100B700000240168821511430160204600F00AF844
:100B8000002801D0012401E000F028F8204610BD23
:100B90000020024070B50F4E002431780546002930
:100BA00015D07D20C000FFF79FFA01460A48006873
:100BB000FFF79AFA00F012FC002808D1042D06D2A3
:100BC00000222946401E00F02FF8756000E0012445
:100BD000204670BD740000208000002008B50B483E
:100BE000016801221143016000681040009007482D
:100BF0004038C26B01040A43C263C06B08400090D6
:100C00000320400200F0E0FB08BD0000401002405D
:100C1000002805DBC106C90E012088400149086093
:100C20007047000000E100E010B501F069FD10BD63
:100C300010B50F4C216803225202914301432160F9
:100C4000C11FFF39FA390ED10A480621006848430E
:100C50000949FFF749FA401C02E0002805D0401E70
:100C600061694905F9D4002010BD032010BD0000C2
:100C7000007000408000002040420F00F8B504469C
:100C800000680026524D800358D55148002740384F
:100C9000C06BC00009D44E484038C26B01040A43FF
:100CA000C263C06B0840012700904A480168821562
:100CB00011430160FFF712FF009005E0FFF70EFF00
:100CC0000099401A022825D842480068C005F5D589
:100CD000E8690321090208400FD0A16981420CD0C4
:100CE000E86903210902EA698843012109040A43EA
:100CF000EA61EA698A43EA61E861C0070FD0FFF759
:100D0000EDFE009008E0FFF7E9FE0099411A324835
:100D1000814201D9032609E0E8698007F3D5E86933
:100D2000032109028843A1690843E861002F05D027
:100D300027484038C16B02049143C1632078C00743
:100D400005D0686961688008800008436861207880
:100D5000800705D568690C218843A168084368614C
:100D60002078800606D56869032109038843E16875
:100D7000084368612088400411D568696169800072
:100D8000800808436861012160698907884206D1AB
:100D90000F484038C168012212041143C160208805
:100DA000000512D568690321890388432169084336
:100DB0006861012120698903884206D104484038CE
:100DC000C168012212041143C1603046F8BD000021
:100DD000401002400070004088130000F8B50F4634
:100DE000060043D04D4D28684007400FB84213D24B
:100DF0002868C008C00038432860FFF76FFE04462B
:100E000005E0FFF76BFE011B4548814261D8286869
:100E10004007400FB842F4D13068424C81070DD5ED
:100E2000400704D5A068072109030843A060A06813
:100E30000F2109028843B1680843A0603078C007D9
:100E400032D0706801280AD002280BD000280FD0B9
:100E50003449403103280ED0C969890704E021686C
:100E6000890301E021688901002906DB0120F8BD22
:100E700021684905F8E7096AEFE7A168C908C900D0
:100E80000143A160FFF72AFE009006E0FFF726FE6F
:100E90000099411A224881421BD8A0683821084095
:100EA0007168C9008842F1D128684007400FB842F4
:100EB00017D91A480168C908C90039430160FFF70A
:100EC0000DFE054607E0FFF709FE411B144881426D
:100ED00001D90320F8BD114800684007400FB8420F
:100EE000F1D13078400706D5A0680721090388436F
:100EF000F1680843A06000F031F8A1683C2289093C
:100F00001140094A515CC906C90EC840074908602A
:100F100007480068FFF73EFEF8BD000000200240D1
:100F200088130000001002403C2F000880000020C1
:100F3000780000200648074900688968064A490485
:100F4000490F8900515CC906C90EC84070470000AE
:100F500080000020001002407C2F000810B5204CBB
:100F6000A068204A8006400F16D0A0688006410F76
:100F7000501001290FD0A1688906490F022912D00B
:100F8000A0688006400F042823D0A0688006400F88
:100F9000032821D0002010BD206801218004400FCB
:100FA0008140104612E0E1688B07E1689B0F49061B
:100FB000490F491C032B00D01046FFF795F8E16854
:100FC0004904490E4843E168490F491CFFF78CF872
:100FD00010BD0120C00310BD7D20000210BD000027
:100FE000001002400024F400F8B504007ED0207800
:100FF0003827C007EB4D002846D0A868E96838407C
:101000008907890F102802D008280BD001E0032996
:1010100008D001206268000482420AD12968014395
:10102000296015E0286880032ED560680028DDD08F
:101030002AE0052301211B0489049A422A6802D16F
:101040000A432A60EAE782432A60286888432860C6
:10105000606800280CD0FFF741FD064604E0FFF76A
:101060003DFD801B642873D828688003F7D50BE00A
:10107000FFF734FD064604E0FFF730FD801B6428CF
:10108000F1D828688003F7D42078800769D5A8684C
:10109000E96838408A070721920FC902102802D058
:1010A000002813D001E0022A10D0E068002846D0C2
:1010B000286888432169084328602868FF21013196
:1010C00008432860FFF70AFD06462CE02A6852050F
:1010D00002D5E268002A89D06A687F231B029A43FE
:1010E00063691B021A436A60002800E08DE00ED19C
:1010F0002868884321690843286028680121800402
:10110000400F8140A848FEF7EFFFA8490860A848B3
:101110000068FFF73FFD002877D122E0FFF7DEFCF3
:10112000801B02289FD828684005F7D568687F2172
:1011300009028843616909020843686011E029686F
:10114000FF20013081432960FFF7C8FC064605E017
:1011500098E0FFF7C3FC801B022884D8286840056C
:10116000F7D42078934E00072ED5A8688006400F4C
:1011700003280AD0A0690028306A16D0012108434C
:101180003062FFF7ABFC07460BE0306A80071BD5E7
:10119000A06900289FD017E0FFF7A0FCC01B022821
:1011A00070D8306A8007F7D50EE040084000306202
:1011B000FFF794FC074604E0FFF790FCC01B0228F1
:1011C00060D8306A8007F7D4207840076CD5A868CB
:1011D00000278006400F042818D0E86BC00008D410
:1011E000E96B012000070143E963E96B0140012736
:1011F000009171480168C90519D40168821511432D
:101200000160FFF76BFC00900DE083E0F069800760
:101210004AD5A06800287DD046E0FFF75FFC009922
:10122000401A02282ED864480068C005F5D5A16888
:10123000012910D004200529F16911D0490849007D
:10124000F161F1698143F161A068002816D0FFF7D0
:1012500045FC00900EE0F06901210843F061F3E7DE
:101260000143F161F7E7FFF739FC0099411A534850
:1012700081426DD8F0698007F5D50EE0FFF72EFCAE
:10128000009007E064E0FFF729FC0099411A4B4801
:1012900081425DD8F0698007F5D4002F04D0E96B56
:1012A000012000078143E963E069002877D0A9683D
:1012B0008906490F022951D00126360602282868DE
:1012C0000DD0B0432860E86880088000E860E868D6
:1012D0003B490840E860FFF701FC04463AE0B043B0
:1012E0002860FFF7FBFB074604E0FFF7F7FBC01B96
:1012F00002282DD828688001F7D4616A206AA26A82
:101300000843E16A120211430843216B0843E9686C
:101310002C4A00E041E011400843E860286830436F
:101320002860E868012109070843E860FFF7D6FB59
:10133000044604E0FFF7D2FB001B022808D8286807
:101340008001F7D52BE0FFF7C9FB001B022801D96C
:101350000320F8BD28688001F5D420E00128F8D0EA
:10136000E868226A8107890F914216D17021626A6A
:101370000140914211D17F21A26A0902014012026B
:1013800091420AD11F214904E26A0140914204D1ED
:10139000400F216B4007884201D00120F8BD00209A
:1013A000F8BD0000001002400024F400800000207E
:1013B00078000020401002400070004088130000B8
:1013C000FFFFFEEF8C80C11F03490A6803235B0205
:1013D0009A4302430A60704700000140094910B572
:1013E000401E884201D9012010BD074C60610321D5
:1013F000081F01F085F90020A0610720206100206E
:1014000010BD0000FFFFFF0000E000E070477047E4
:1014100070470000F0B5034620331A7F012A27D019
:1014200001221A7702225A7704686268A568114F70
:10143000BC4205D116460F22120596434A68324334
:101440007026B2430E68164366600068B84205D045
:10145000094A904202D0094A904204D18022896808
:101460009543294381600120587700201877F0BD0B
:101470000220F0BD002C014000040040004001406B
:1014800070B5040005D025462035687F002802D0BD
:1014900006E0012070BD00202877204600F016F8F5
:1014A00002206877211D206800F0B0FE0122403440
:1014B0002272AA77EA7722706270A270E2702271BB
:1014C0006271A271E2716A77002070BD08B5006890
:1014D0000A49884210D10A480268012109040A43D6
:1014E0000260006800220840009011461420FFF7B7
:1014F0009BFB1420FFF78CFB08BD0000004001405F
:1015000040100240014620314A7F012A01D00120CB
:10151000704702224A770168CB6801221343CB60EF
:1015200000680B49884205D00A49884202D00A491E
:10153000884207D18168094B1940062905D0DB1F75
:10154000994202D0016811430160002070470000F9
:10155000002C014000040040004001400700010051
:1015600070B5054604462035287F012817D001268E
:101570002E7702206877226890682E4B1840FF2350
:101580001B02984390600A68502A32D00EDC202A51
:101590004CD006DC002A49D0102A3BD146E002207C
:1015A00070BD302A42D0402A34D137E0602A28D09A
:1015B000702A12D001200003121A2BD0824229D1A6
:1015C000CB684A688968206800F064FE20688168FA
:1015D00001229203114381601CE0CB684A6889684C
:1015E000206800F057FE21688868772210438860E1
:1015F00010E0CA684968206800F062FE5021206847
:1016000006E0CA684968206800F06BFE6021206827
:1016100000F04CFE6E770020287770BDCA684968DC
:10162000206800F04DFE40212068F1E71146206857
:10163000EEE7000088FFCEFF7047000070B504465B
:10164000006801690025C9438907002915DBC168C5
:10165000C943890711D4E91E016101202077206860
:1016600080698007204602D0FFF7E6FF04E000F023
:10167000A7F8204600F0A5F8257720680169C9433E
:10168000490717D4C168C943490713D40421C94382
:10169000016102202077206880698005800F204644
:1016A00002D0FFF7C9FF04E000F08AF8204600F0FE
:1016B00088F8257720680169C943090716D4C168ED
:1016C000C943090712D40821C943016104202077C6
:1016D0002068C0698007204602D0FFF7ADFF04E014
:1016E00000F06EF8204600F06CF82577206801695C
:1016F000C943C90617D4C168C943C90613D4102108
:10170000C9430161082020772068C0698005800FE7
:10171000204602D0FFF790FF04E000F051F8204689
:1017200000F04FF8257720680169C943C90708D13F
:10173000C168C943C90704D1891E0161204600F070
:1017400041F820680169C943090609D4C168C94341
:10175000090605D48021C94301612046FFF757FEE1
:1017600020680169C943C90508D4C168C94309068D
:1017700004D4124901612046FFF748FE2068016940
:10178000C943490609D4C168C943490605D4402163
:10179000C9430161204600F067FA20680169C94326
:1017A000890609D4C168C943890605D42021C943E3
:1017B00001612046FFF72CFE70BD0000FFFEFFFF19
:1017C00070477047F0B5FD488FB00069032803D01B
:1017D000002107287ED000E001210022F84EF94FB9
:1017E000F94D114377D0002210213046FFF770F9F0
:1017F000002240213046FFF76BF9002201213C46D0
:101800003846FFF765F9002204212046FFF760F90A
:10181000002269103046FFF75BF900222021304694
:10182000FFF756F9002280213046FFF751F90022D8
:1018300002212046FFF74CF9002229463046FFF7E7
:1018400047F900224021E148FFF742F900226900F0
:101850003046FFF73DF9AD00002229463046FFF73C
:1018600037F9002269003046FFF732F900222901DA
:101870003046FFF72DF9012208212046FFF728F90D
:10188000D348FFF711F80121D148FEF7ADFFD0484A
:10189000FEF752FEC94E7066CD48FFF739F80022B8
:1018A00008212046FFF714F9012210212046FFF7F6
:1018B0000FF9C748FEF7F8FF0121C548FEF794FF6E
:1018C000C348FEF739FEB066C148FFF721F8002291
:1018D000102101E01CE02AE12046FFF7F9F8B0688A
:1018E000BC4B8200B16E401C9950B060A84203D935
:1018F0000020B06001203070FFF7F0F8F0640B902A
:10190000B548756EF168854204D90122114303E0A0
:10191000012263E749084900F160B46E0221844264
:10192000F06801D9084300E08843F0600420F168C2
:10193000322D01D2014300E081430820F160322CB6
:1019400001D2014300E081439C48F160C068002857
:1019500013D09A480B990022C2650165511E016699
:10196000C16A4164816A826201649C49C1624263C6
:1019700081639248C566046762E1904F78690028E8
:1019800014D1974B2146964E82003036B150401C00
:101990009D500C28F7D3002030368100914A401C1E
:1019A00054507550FF28F8D301207861B8698C49EC
:1019B000830030318A4ACC50401CD550B8610C2885
:1019C00001D30020B86100203862034606467862E1
:1019D000834A990052585B1C1018814A3032515882
:1019E0008E190C2BF4D30C21FEF77EFB386201908C
:1019F0000C213046FEF778FB786202460290B86808
:101A00007949800005900A5000267448BE62F86249
:101A100006903E630E967E63FE63B8630D96F96989
:101A20006F4B8446099101988900603358506D4886
:101A300042500999491CF961FF2901D30021F9613C
:101A4000614609910699B44606960D9E0E9A0023AA
:101A500007916349980060310958624F8A183858D5
:101A6000069F8619B94200DD0691079FB94200DA48
:101A70000791604500DD84460999884200DA0990A3
:101A80005B1CFF2BE5D34D4F099861467963B86322
:101A900001910798F8620698B8621046FF21FEF798
:101AA00023FB3863FF213046FEF71EFBF8634F4AE5
:101AB0000599505001994E4A4018C10F081840101E
:101AC000B8640299814201DD012000E00020059BFD
:101AD0003E46D0507870B878002806D0002177783C
:101AE000394204D00B9870651FE00121F7E7002F01
:101AF00016D00021014218D00B98B065716D401AC4
:101B00000F2812D9F06D401CF0650B99326D891ABF
:101B1000384A914206D952005043FEF7E5FA03E0F5
:101B20000121E7E70020C0433066B77021E7234C6E
:101B3000002804D0012824D002285DD080E00122B2
:101B400029463046FEF7C4FF002240211F48FEF719
:101B5000BFFF0121002289023046FEF7B9FF206E47
:101B6000002801DA112002E0642808DA102001F0D0
:101B700073F9012202213846FEF7AAFF60E06421D2
:101B800019E0002229463046FEF7A2FF012240213B
:101B90000E48FEF79DFF0121002289023046FEF724
:101BA00097FF206E0028DDDB0A28DFDB6421FEF7CB
:101BB000B1FA08460A21FEF7ADFA3FE00000002026
:101BC0000000005000040050000200000008005017
:101BD00084000020D4220020E8FD0000FFFF000068
:101BE000D482002030870020D4020020D44200207C
:101BF000D462002030750000002229463046FEF7EE
:101C000067FF002240211548FEF762FF0122910282
:101C10003046FEF75DFF6078002809D000220221DF
:101C20003846FEF755FF206E002803DA112005E044
:101C30000122F4E70A21FEF76DFA084601F00CF9DB
:101C400007480169491C0161072901D90021016187
:101C50000448FEF77BFF0FB0F0BD00000008005005
:101C600000000020E8000020704710B501468031D8
:101C70000A78012A15D001220A7024224A600268DB
:101C800013681468640864001460012252079343C7
:101C90000022426600680360202048600A701046F7
:101CA00010BD022010BD70B5044605468034207872
:101CB00001281AD00120207024206060286806685E
:101CC00002685208520002602868826807235B0697
:101CD0009A430A438260284600F016FB2868066093
:101CE000202060600020207070BD022070BD70B5A3
:101CF0000446054680342078012819D00120207040
:101D00002420606028680668026852085200026059
:101D100028688268D200D2080A438260284600F010
:101D2000F3FA28680660202060600020207070BDF3
:101D3000022070BD70B5040005D025468035686866
:101D4000002802D006E0012070BD00202870204647
:101D500000F026F8242068602068016849084900DE
:101D60000160204600F098FB0128EDD0A06A002811
:101D700002D0204600F0F8FA206841680922D20219
:101D800091434160206881682A22914381602068E4
:101D90000168012211430160204600F04BFB70BD39
:101DA00010B586B0044614216846FEF7E0F91149E3
:101DB000206888421CD11048C26B012149040A43A3
:101DC000C263C26B0A400592426B01210A4342631F
:101DD000406B0491084005900C2000900220019077
:101DE000002002900390052069460007FEF7C2FD1F
:101DF00006B010BD0044004000100240FFB506468A
:101E000004468036706883B00D46202860D1002DCE
:101E10000CD00598002809D00120A1680003814258
:101E200007D12069002804D1E80702D0012007B0BB
:101E3000F0BD307801284BD0012030700020F060D8
:101E400021207060FEF74AFE019027464037059832
:101E5000B8820598F8820120A1680003814202D16E
:101E60002069002804D0029500250020307015E07C
:101E700000200290F9E700228021204600F0D8FBE4
:101E8000002818D10298002817D0216800788862AD
:101E90000298401C0290F88A401EF882F88A019B42
:101EA000002806980090E6D100224021204600F04C
:101EB000BFFB002808D00320B9E728882168C005A7
:101EC000C00D8862AD1CE6E7202070600020AEE700
:101ED0000220ACE7FEE78068C007C00F704780684B
:101EE0004007C00F7047C0680005800F01D0002078
:101EF000704701207047026807239B059A430A43F5
:101F00000260704710B543690424214007248C40C7
:101F1000A3438A401343436110BD00003EB5002433
:101F20001B480094019419490294016084600121C6
:101F3000C460C904046141600421416104764476AF
:101F40008476012201462031C2610C7044628462B1
:101F50000C7305234363046383630A7744648464D6
:101F60000C21C4640164FEF7EBFA002801D072B6BC
:101F7000FEE7084800900194694602940448FEF781
:101F8000C9F9002801D072B6FEE73EBD0024014029
:101F90008400002002000004F0B587B014216846D8
:101FA000FEF7E5F82B48426B02210A434263426B7D
:101FB0000A400592426B04210A434263426B0A4085
:101FC0000592416B012529434163406B224F284014
:101FD00005900520002239460007FEF779FD002212
:101FE0003F211E48FEF774FD002240211C48FEF7E9
:101FF0006FFD0F20800103260024009069460196A2
:1020000002941648FEF7B6FCB003009069460196AC
:1020100002941348FEF7AEFC0520029469460007BF
:10202000009701950394FEF7A5FC3F2000900294D1
:102030006946019503940948FEF79CFC40200090F6
:1020400002946946019503940548FEF793FC07B096
:10205000F0BD000000100240F09F0000000400509E
:102060000008005010B588B000240094019418486E
:102070000294039404940594144906940160092180
:1020800084604160046113494461C16080218161C1
:10209000FFF7F6F9002801D072B6FEE70120000331
:1020A000009069460A48FFF75BFA002801D072B633
:1020B000FEE72020049004A906940548FFF7AAF93A
:1020C000002801D072B6FEE708B010BD0040014004
:1020D000F80000203F1F000010B5194817490160A3
:1020E000E121C902416000218160C160016181611B
:1020F000C16108220162426182624162110381630F
:10210000FFF718FE002801D072B6FEE700210C4848
:10211000FFF7EDFD002801D072B6FEE70021084868
:10212000FFF7C1FD002801D072B6FEE70448FFF7B3
:102130009CFD002801D072B6FEE710BD00440040AF
:1021400044010020FEE77047704710B5FEF706FD1A
:1021500010BD000030B599B034216846FEF707F88D
:1021600000241494159416941C210DA81794FDF7BF
:10217000FEFF01204002FEF75BFD0A200090FF20D9
:1021800001300390402005900120069004943020F7
:10219000099020200A90022500030B900795000368
:1021A0000C9008956846FEF71FFF002801D072B614
:1021B000FEE707201490169402211595179414A891
:1021C000FEF70CFE002801D072B6FEE70648129416
:1021D0000D900F940DA8FEF751FD002801D072B6A6
:1021E000FEE719B030BD00000240000001200249A6
:1021F000C00688607047000000ED00E010B502489E
:10220000FFF71CFA10BD0000F8000020F0B50268CE
:102210001A4B1B4C984201D0A04203D17025AA430F
:102220004D682A43174D184E184F98420AD0A042C5
:1022300008D0174CA04205D0A84203D0B04201D02C
:10224000B84205D11446032212029443CA682243BD
:102250008024A2434C69224302608A68C2620A68F1
:102260008262984205D0A84203D0B04201D0B84261
:1022700001D10969016301214161F0BD002C0140D8
:10228000000400400040014000440140004801407B
:102290000020004030B58468FF252D021B02134347
:1022A000AC430B432343836030BD00008268034B83
:1022B0001A400A4307210A43826070478FFFCFFF0D
:1022C00030B5036A046A6408640004628469F02516
:1022D000AC43120122430A24A3430B4382610362ED
:1022E00030BD30B5036A1024A34303628469036AD6
:1022F0000F252D031203AC432243A024A34309015D
:1023000019438261016230BDF0B513A106C985B0E1
:102310000192009112A206CA039202910446416EF4
:102320004034002915D000688168806809014D0F8C
:10233000400F02AE315C6F46385CC000FDF7D4FE42
:102340006085785D715DC000FDF7CEFE208505B02B
:10235000F0BD01206085F9E70101010307010000DC
:10236000080402040801010110B5018DC90707D056
:1023700001684A6801235B049A43C36A1A434A60AE
:10238000018D890707D501684A6801231B049A4318
:10239000036B1A434A60018D490707D501684A68F3
:1023A00001239B049A43436B1A434A60018D09073A
:1023B00007D501684A680123DB039A43836B1A43FC
:1023C0004A60018DC90607D50268916801231B0385
:1023D0009943C36B19439160018D890607D5016844
:1023E0008A6801235B039A43036C1A438A60018D58
:1023F000490612D503685A6801210905446C8A43CD
:1024000022435A60426C8A4207D102685168032312
:102410005B059943836C19435160018D090607D50B
:1024200001684A680123DB04C06C9A4302434A6096
:1024300010BD0000FEB50546002680350446EE605E
:10244000FEF74CFB019020680068124F000709D589
:1024500001210097002249052046019B00F0E8F881
:1024600000280DD12068006840070BD50121009796
:10247000002289052046019B00F0DAF8002801D0EF
:102480000320FEBD20206860A860E6662E70002054
:10249000FEBD0000FFFFFF01F8B50446806821691A
:1024A000E26908436169002511430843616E0143F5
:1024B00020680268544B1A400A4302602168486849
:1024C000032212039043E26810434860A169206A26
:1024D000084321688A684D4B1A4002438A6020688D
:1024E000C16A626A090909011143C162484A206848
:1024F000484990420AD148698007800F20D00128BE
:1025000014D0022810D003281CD111E0424A904276
:1025100010D148690C21084012D0042806D00828A0
:1025200002D00C280ED103E002210CE004210AE0C5
:10253000082108E03949884202D03949884201D14E
:10254000002100E010210120E369C003354A364E26
:10255000364F834228D1002906D0022907D004290A
:1025600007D0082941D108E0FEF7E4FC03E010465B
:1025700003E0FEF7F3FC00283BD0616A4900715A82
:10258000FDF7B2FD616840004A088018FDF7ACFD18
:1025900080B201461039B94227D82449491C01406C
:1025A0000007400F084322E0002906D0022907D087
:1025B000042907D0082918D108E0FEF7BBFC03E086
:1025C000104603E0FEF7CAFC002812D0616A4900F9
:1025D000715AFDF789FD61684A088018FDF784FD8E
:1025E00080B201461039B94201D9012501E02168C4
:1025F000C8602046012140304185018500202067C8
:1026000060672846F8BD0000F369FFCFFFF4FF11B3
:1026100000380140401002400044004000480040A3
:10262000004C00400024F400242F0008EFFF0000BD
:10263000FFB581B005460F46044680350A9E38E056
:10264000701C36D0FEF74AFA0499401AB04221D8DD
:10265000002E1FD02068016849072AD5C069C043F1
:10266000000526D401202168C002086220680168A4
:10267000FF22A13291430160206881684908490026
:10268000816020206860A860E86000202870032036
:1026900005B0F0BD20680168FF22A13291430160BE
:1026A0002068816849084900816020206860A8602E
:1026B000EBE72068C1693846884305D000210398BC
:1026C0008142BDD00020E3E70121F8E70FB41CB53B
:1026D0000246002007AC00290BD0491E0191009250
:1026E000064B6A462146069800F03CF8009A002105
:1026F00011701CBC08BC04B018470000B52A0008C3
:102700008307FF22DB0E9A408907090E99400028B3
:1027100008DB830809489B001B181868904308438E
:10272000186070470007000F0838830804489B00B2
:102730001B18D86990430843D861704700E400E053
:1027400000ED00E002E008C8121F08C1002AFAD11B
:1027500070477047002001E001C1121F002AFBD121
:1027600070470000FFB58FB00546002606E025281B
:102770000AD0129A119990476D1C761C287800286F
:10278000F5D1304613B0F0BD002402940121B54AC2
:10279000009400E004436D1C2B780846203B9840D1
:1027A0001042F7D128782A280ED002222878014634
:1027B0003039092916D802990A235943303940186B
:1027C00014436D1C0290F1E7109802C8029110901A
:1027D000002904DA01204003044348420290022009
:1027E00004436D1C28782E2817D1042004436878F0
:1027F0006D1C2A280CD110986D1C02C800911090F5
:102800000BE000990A225143303940186D1C0090AA
:102810002878014630390929F3D928786C2810D056
:1028200006DC4C281AD068280ED06A2817D104E09C
:10283000742813D07A2812D110E0012040050443F7
:102840000CE00121090501E0032109050C43697829
:10285000814203D10120000524186D1C6D1C2878CD
:10286000692874D006DC00288BD0632827D0642820
:1028700006D16CE06E2808D073282CD0752878D04B
:10288000129A11999047761C5FE06002400F02286F
:1028900009D003280DD00428109801680DD00E60CF
:1028A000001D109051E01098F21701680E604A6008
:1028B000F6E7109801680E80F2E70E70F0E71098C6
:1028C0006A4601781173001D10900020507303A810
:1028D0000190012005E0109802C80191109000209D
:1028E000C04361070CD5002700E07F1C00998F4290
:1028F0000FDA8742F9DB0199C95D0029F5D108E0BB
:10290000002700E07F1C8742FCDB0199C95D00299C
:10291000F8D102982146C01B0290129B119A00F038
:10292000B3F88019C61907E0019801990078491C8D
:102930000191129A119990477F1EF5D22146129B60
:10294000119A029800F090F886196D1C16E70A207B
:102950000190109901C910916102490F032900D11A
:1029600000B2042900D140B2002803DA40422D21F0
:1029700003E00DE0210504D52B216A4611730121E6
:1029800003E0E10711D02021F7E70CAF0C9114E030
:102990000A200190109901C910916102490F032981
:1029A00000D180B2042900D1C0B20021EDE7019925
:1029B000FDF79AFB30317F1E39700028F7D104A84B
:1029C000C01B20300190600704D50120000484431F
:1029D000009801E0012000900199884201DD401A31
:1029E00000E00020411800900C9809180298401A45
:1029F0000290E00306D42146129B119A029800F03F
:102A000043F8861900200D9008E003A9085C129A8B
:102A1000119990470D98401C761C0D900C99884296
:102A2000F3DBE0030CD52146129B119A029800F0CB
:102A30002BF8861904E0129A302011999047761CE1
:102A40000099481E00900029F5DC05E03878129ABC
:102A50007F1C11999047761C0199481E019000290E
:102A6000F4DC6BE709280100F8B5044600251E4692
:102A70001746880404D405E039462020B0476D1C71
:102A8000641EF9D52846F8BDFFB50446002581B07F
:102A90001E46C80301D5302700E02027880404D54E
:102AA00005E038460399B0476D1C641EF9D52846E9
:102AB00005B0F0BD4A68002A06D00A68531C0B60B6
:102AC00010704868401E4860704700008EB0FEF7E6
:102AD0004DF8FFF73FFBFFF75FFAFFF71FFAAC482F
:102AE000AA49016006214160AA49C1608160FDF7E1
:102AF000FBFF002801D072B6FEE7FFF7B3FAFFF73D
:102B0000EBFAA348A4A2FF21EC30FFF7DFFDA84CAD
:102B10009F4982B2EC316060084664239038FFF729
:102B20006DF901222021A348FDF7D2FF6420FDF7B3
:102B30000FFFFDF7D3FF206595481030FEF7E2FC4C
:102B40009D48FDF705FF9A4E307BC0070ED0904898
:102B50009AA2FF21EC30FFF7B9FD8D4982B2EC312A
:102B60007060084664239038FFF748F9307B80078F
:102B70000ED5874896A2FF21EC30FFF7A7FD8449C8
:102B800082B2EC317060084664239038FFF736F962
:102B9000307B40070ED57E4892A2FF21EC30FFF734
:102BA00095FD7B4982B2EC31706008466423903811
:102BB000FFF724F9307B00070ED575488FA2FF215F
:102BC000EC30FFF783FD724982B2EC317060084649
:102BD00064239038FFF712F9307800287ED06C48D3
:102BE000002434708BA2FF21EC30FFF76FFD6849A1
:102BF00082B2EC317060084664239038FFF7FEF82B
:102C00000025874EAF00F01FF35986A2FF21F93847
:102C1000FFF75CFD664982B24860F11FF93908464A
:102C200064239038FFF7EAF8F4510126F6026D1C90
:102C3000B542E6D356487DA2FF21EC30FFF746FDB2
:102C40005B4982B2486052496423EC3108469038AF
:102C5000FFF7D4F8774D00274D48BE00AB5971A25D
:102C6000FF21EC30FFF732FD514982B248604849FC
:102C70006423EC3108469038FFF7C0F8AC510126C8
:102C8000F6027F1CB742E7D341486BA2FF21EC302C
:102C9000FFF71CFD464982B248603D496423EC3190
:102CA00008469038FFF7AAF82546414C00276548AA
:102CB000BE00835936485BA2FF21EC30FFF706FDCA
:102CC000334982B2EC316060084664239038FFF7E4
:102CD00095F8584885510126F60200E051E07F1C26
:102CE000B742E4D32A4858A2FF21EC30FFF7EEFCAC
:102CF000274982B2EC316060084664239038FFF7C0
:102D00007DF8534D00272248BE00AB5945A2FF2154
:102D1000EC30FFF7DBFC1E4982B2EC316060084604
:102D200064239038FFF76AF80020A8510120C00200
:102D30007F1C8742E7D3E368E26D216EE06B099068
:102D40000AA80EC020462C300FC8059006A80EC059
:102D5000A36AE26CA16E606E019002A80EC0606969
:102D600000900B483B4AFF21EC30A368FFF7AEFC14
:102D7000074982B2EC316060084664239038FFF75F
:102D80003DF80348FDF7E2FEDAE6000000300040BF
:102D9000E8000020FF0F00000D0A4C45442050754C
:102DA0006C6365204F78204D657465720D0A0000D4
:102DB0000000002000040050A86100000D0A4669D0
:102DC0006E676572204F7574205265640D0A0000AD
:102DD0000D0A46696E676572204F75742049520D61
:102DE0000A0000000D0A5369676E616C2052656429
:102DF00020546F6F204C6F770D0A00000D0A536945
:102E0000676E616C20495220546F6F204C6F770DB4
:102E10000A0000000A0D495220736B3B00000000BD
:102E2000D40200202025643B000000000A0D495216
:102E30003B000000D42200200A0D49522073726525
:102E4000643B0000D44200200A0D466C61673B00E1
:102E5000D46200209C2F000870B586B0044614226E
:102E600028A16846FDF76AF9E00F112C01DD012168
:102E700000E00021084342D16846045D264DE0078A
:102E800001D0002200E0012210212846FDF720FE9B
:102E9000A00701D5002200E0012240212846FDF7CD
:102EA00017FE1E4E600701D5002200E0012201211D
:102EB0003046FDF70DFE200701D5002200E001227B
:102EC00004213046FDF704FE1549E00601D5002235
:102ED00000E001222846FDF7FBFDA00601D50022F7
:102EE00000E0012220212846FDF7F2FD600601D511
:102EF000002200E0012280212846FDF7E9FD06B00E
:102F000070BD00003F065B4F666D7D077F6F777C6D
:102F1000395E79710040000000000050000400504C
:102F200000010000010002000400060008000A0081
:102F30000C00100020004000800000010000000094
:102F40000000000000000000000000000000000081
:102F50000000000000000000000000000100000070
:102F60000200000003000000040000000600000052
:102F70000700000008000000090000000000000039
:102F80000000000000000000000000000100000040
:102F90000200000003000000040000000D0A69693F
:102FA00069202564207072656466696C7465726559
:102FB00064202564202072656420256420697220C5
:102FC00025642074696D6520256420726564206D18
:102FD0006178202564206D696E20256420737265F8
:102FE00064202564206972206D6178202564206D3D
:102FF000696E2025642073726564202564207075D5
:103000006C636542504D2025642070756C63656368
:103010006F756E74202564206572726F722025644E
:103020000D0A000044300008000000208400000069
:1030300044270008C830000884000020AC8E00003F
:1030400054270008000000000000000000000000FD
:103050000000000000000000000000000000000070
:103060000000000000000000000000000000000060
:10307000FFFF00000000000000000000FFFF000054
:103080000000000000000000FFFF00000000000042
:103090000000000000000000000000000000000030
:1030A00000000000FFFFFFFF000000000000000024
:1030B000000000000000000001000000040000000B
:0830C000000000000024F400F0
:04000005080000B936
:00000001FF
